:100000000C942A000C943C000C943C000C943C0092
:100010000C943C000C943C000C943C000C943C0070
:100020000C943C000C943C000C943C000C943C0060
:100030000C943C000C943C000C943C000C943C0050
:100040000C943C000C943C000C943C000C943C0040
:100050000C943C0011241FBECFE5D8E0DEBFCDBF1D
:1000600020E0A0E6B0E001C01D92A136B207E1F7A2
:100070000E94C9000C94FA000C940000813031F108
:1000800038F0823009F440C0833009F45AC076C099
:1000900041110DC02AB381E090E002C0880F991F82
:1000A0006A95E2F7809582238ABB81E070C0413077
:1000B00009F066C02AB381E090E002C0880F991F62
:1000C0006A95E2F7822B8ABB81E061C041110DC0C5
:1000D00027B381E090E002C0880F991F6A95E2F78C
:1000E0008095822387BB81E052C0413009F04AC02D
:1000F00027B381E090E002C0880F991F6A95E2F76C
:10010000822B87BB81E043C041110DC024B381E045
:1001100090E002C0880F991F6A95E2F780958223CC
:1001200084BB81E034C0413079F524B381E090E0B4
:1001300002C0880F991F6A95E2F7822B84BB81E089
:1001400026C041110DC021B381E090E002C0880FAC
:10015000991F6A95E2F78095822381BB81E017C0E1
:100160004130A1F421B381E090E002C0880F991FD3
:100170006A95E2F7822B81BB81E009C080E007C06D
:1001800080E005C080E003C080E001C080E00000A6
:10019000089541E067E083E00E943E0085B58064F9
:1001A00085BD85B5886085BD85B58F7E85BD85B5E6
:1001B000806285BD85E083BD85B5816085BD85B5DF
:1001C000826085BD85B5846085BD2FEF81EE94E0AA
:1001D000215080409040E1F700C0000083B58F5F60
:1001E00083BD83B5823389F781E08093600085E029
:0801F00083BDEBCFF894FFCFB3
:00000001FF
